{
  "contractName": "BookingContract",
  "abi": [
    {
      "anonymous": false,
      "inputs": [
        {
          "indexed": true,
          "name": "_id",
          "type": "uint256"
        },
        {
          "indexed": false,
          "name": "_fromDate",
          "type": "uint256"
        },
        {
          "indexed": false,
          "name": "_toDate",
          "type": "uint256"
        },
        {
          "indexed": false,
          "name": "_fromTime",
          "type": "uint256"
        },
        {
          "indexed": false,
          "name": "_toTime",
          "type": "uint256"
        }
      ],
      "name": "addSlotEvent",
      "type": "event"
    },
    {
      "anonymous": false,
      "inputs": [
        {
          "indexed": true,
          "name": "_id",
          "type": "uint256"
        },
        {
          "indexed": false,
          "name": "uname",
          "type": "string"
        },
        {
          "indexed": false,
          "name": "ethAddress",
          "type": "address"
        },
        {
          "indexed": false,
          "name": "_fromDate",
          "type": "uint256"
        },
        {
          "indexed": false,
          "name": "_fromTime",
          "type": "uint256"
        },
        {
          "indexed": false,
          "name": "_toTime",
          "type": "uint256"
        }
      ],
      "name": "addBookRequestEvent",
      "type": "event"
    },
    {
      "constant": false,
      "inputs": [
        {
          "name": "Uname",
          "type": "string"
        },
        {
          "name": "password",
          "type": "string"
        }
      ],
      "name": "registerConsumer",
      "outputs": [
        {
          "name": "",
          "type": "uint256"
        }
      ],
      "payable": false,
      "stateMutability": "nonpayable",
      "type": "function"
    },
    {
      "constant": false,
      "inputs": [
        {
          "name": "Uname",
          "type": "string"
        },
        {
          "name": "password",
          "type": "string"
        }
      ],
      "name": "loginCustomer",
      "outputs": [
        {
          "name": "",
          "type": "bool"
        }
      ],
      "payable": false,
      "stateMutability": "nonpayable",
      "type": "function"
    },
    {
      "constant": false,
      "inputs": [
        {
          "name": "_fromDay",
          "type": "uint256"
        },
        {
          "name": "_toDay",
          "type": "uint256"
        },
        {
          "name": "_fromTime",
          "type": "uint256"
        },
        {
          "name": "_toTime",
          "type": "uint256"
        }
      ],
      "name": "openSlots",
      "outputs": [
        {
          "name": "",
          "type": "bool"
        }
      ],
      "payable": true,
      "stateMutability": "payable",
      "type": "function"
    },
    {
      "constant": true,
      "inputs": [
        {
          "name": "_slotId",
          "type": "uint256"
        }
      ],
      "name": "getSlotInfo",
      "outputs": [
        {
          "name": "slotId",
          "type": "uint256"
        },
        {
          "name": "owner",
          "type": "address"
        },
        {
          "name": "fromday",
          "type": "uint256"
        },
        {
          "name": "today",
          "type": "uint256"
        },
        {
          "name": "fromTime",
          "type": "uint256"
        },
        {
          "name": "toTime",
          "type": "uint256"
        },
        {
          "name": "maxSlotTime",
          "type": "uint256"
        },
        {
          "name": "bookstatus",
          "type": "string"
        },
        {
          "name": "maxslotcounter",
          "type": "uint256"
        }
      ],
      "payable": false,
      "stateMutability": "view",
      "type": "function"
    },
    {
      "constant": true,
      "inputs": [],
      "name": "getSlotstoView",
      "outputs": [
        {
          "name": "",
          "type": "uint256[]"
        }
      ],
      "payable": false,
      "stateMutability": "view",
      "type": "function"
    },
    {
      "constant": false,
      "inputs": [
        {
          "name": "uname",
          "type": "string"
        },
        {
          "name": "_day",
          "type": "uint256"
        },
        {
          "name": "_fromTime",
          "type": "uint256"
        },
        {
          "name": "_toTime",
          "type": "uint256"
        }
      ],
      "name": "bookSlot",
      "outputs": [
        {
          "name": "",
          "type": "uint256"
        }
      ],
      "payable": true,
      "stateMutability": "payable",
      "type": "function"
    },
    {
      "constant": true,
      "inputs": [
        {
          "name": "_slotId",
          "type": "uint256"
        }
      ],
      "name": "getBookingRequest",
      "outputs": [
        {
          "name": "name",
          "type": "string"
        },
        {
          "name": "consumerAddress",
          "type": "address"
        },
        {
          "name": "day",
          "type": "uint256"
        },
        {
          "name": "fromTime",
          "type": "uint256"
        },
        {
          "name": "toTime",
          "type": "uint256"
        },
        {
          "name": "status",
          "type": "string"
        }
      ],
      "payable": false,
      "stateMutability": "view",
      "type": "function"
    },
    {
      "constant": true,
      "inputs": [],
      "name": "getBookingRequestoView",
      "outputs": [
        {
          "name": "",
          "type": "uint256[]"
        }
      ],
      "payable": false,
      "stateMutability": "view",
      "type": "function"
    },
    {
      "constant": false,
      "inputs": [
        {
          "name": "_day",
          "type": "uint256"
        },
        {
          "name": "_fromTime",
          "type": "uint256"
        },
        {
          "name": "apprdeny",
          "type": "bool"
        }
      ],
      "name": "approveDeny",
      "outputs": [
        {
          "name": "",
          "type": "uint256"
        }
      ],
      "payable": true,
      "stateMutability": "payable",
      "type": "function"
    }
  ],
  "bytecode": "0x6080604052336000806101000a81548173ffffffffffffffffffffffffffffffffffffffff021916908373ffffffffffffffffffffffffffffffffffffffff160217905550611eed806100536000396000f300608060405260043610610099576000357c0100000000000000000000000000000000000000000000000000000000900463ffffffff1680630bf6941a1461009e57806326d097fa1461010a57806340cc37ff1461016057806342bbf01a146101cc5780635cceda701461028f5780638bc056d91461031d578063be20f9ac14610367578063f593352914610471578063fe7aa153146105cb575b600080fd5b3480156100aa57600080fd5b506100b3610692565b6040518080602001828103825283818151815260200191508051906020019060200280838360005b838110156100f65780820151818401526020810190506100db565b505050509050019250505060405180910390f35b61014660048036038101908080359060200190929190803590602001909291908035906020019092919080359060200190929190505050610803565b604051808215151515815260200191505060405180910390f35b34801561016c57600080fd5b50610175610aef565b6040518080602001828103825283818151815260200191508051906020019060200280838360005b838110156101b857808201518184015260208101905061019d565b505050509050019250505060405180910390f35b3480156101d857600080fd5b50610279600480360381019080803590602001908201803590602001908080601f0160208091040260200160405190810160405280939291908181526020018383808284378201915050505050509192919290803590602001908201803590602001908080601f0160208091040260200160405190810160405280939291908181526020018383808284378201915050505050509192919290505050610c60565b6040518082815260200191505060405180910390f35b610307600480360381019080803590602001908201803590602001908080601f0160208091040260200160405190810160405280939291908181526020018383808284378201915050505050509192919290803590602001909291908035906020019092919080359060200190929190505050610ddb565b6040518082815260200191505060405180910390f35b6103516004803603810190808035906020019092919080359060200190929190803515159060200190929190505050611378565b6040518082815260200191505060405180910390f35b34801561037357600080fd5b506103926004803603810190808035906020019092919050505061160b565b604051808a81526020018973ffffffffffffffffffffffffffffffffffffffff1673ffffffffffffffffffffffffffffffffffffffff16815260200188815260200187815260200186815260200185815260200184815260200180602001838152602001828103825284818151815260200191508051906020019080838360005b8381101561042e578082015181840152602081019050610413565b50505050905090810190601f16801561045b5780820380516001836020036101000a031916815260200191505b509a505050505050505050505060405180910390f35b34801561047d57600080fd5b5061049c6004803603810190808035906020019092919050505061173f565b60405180806020018773ffffffffffffffffffffffffffffffffffffffff1673ffffffffffffffffffffffffffffffffffffffff16815260200186815260200185815260200184815260200180602001838103835289818151815260200191508051906020019080838360005b83811015610524578082015181840152602081019050610509565b50505050905090810190601f1680156105515780820380516001836020036101000a031916815260200191505b50838103825284818151815260200191508051906020019080838360005b8381101561058a57808201518184015260208101905061056f565b50505050905090810190601f1680156105b75780820380516001836020036101000a031916815260200191505b509850505050505050505060405180910390f35b3480156105d757600080fd5b50610678600480360381019080803590602001908201803590602001908080601f0160208091040260200160405190810160405280939291908181526020018383808284378201915050505050509192919290803590602001908201803590602001908080601f01602080910402602001604051908101604052809392919081815260200183838082843782019150505050505091929192905050506118ee565b604051808215151515815260200191505060405180910390f35b606080600080606060008060025414156106de5760006040519080825280602002602001820160405280156106d65781602001602082028038833980820191505090505b5095506107fb565b60025460405190808252806020026020018201604052801561070f5781602001602082028038833980820191505090505b50945060009350600092505b6002548310156107775760058381548110151561073457fe5b906000526020600020906007020160000154858581518110151561075457fe5b90602001906020020181815250508380600101945050828060010193505061071b565b836040519080825280602002602001820160405280156107a65781602001602082028038833980820191505090505b509150600090505b838110156107f75784818151811015156107c457fe5b9060200190602002015182828151811015156107dc57fe5b906020019060200201818152505080806001019150506107ae565b8195505b505050505090565b6000806060600080601060018a8a03010293506040805190810160405280600481526020017f667265650000000000000000000000000000000000000000000000000000000081525092506103849150600090505b600380549050811015610922578860038281548110151561087557fe5b9060005260206000209060090201600201541480156108b357508760038281548110151561089f57fe5b906000526020600020906009020160030154145b80156108de5750866003828154811015156108ca57fe5b906000526020600020906009020160040154145b80156109095750856003828154811015156108f557fe5b906000526020600020906009020160050154145b156109175760009450610ae3565b806001019050610858565b600380548091906001016109369190611b3c565b506001600380549050101561094e5760009450610ae3565b6001600081548092919060010191905055506101206040519081016040528060015481526020013373ffffffffffffffffffffffffffffffffffffffff1681526020018a81526020018981526020018881526020018781526020018381526020018481526020018581525060036001600380549050038154811015156109d057fe5b90600052602060002090600902016000820151816000015560208201518160010160006101000a81548173ffffffffffffffffffffffffffffffffffffffff021916908373ffffffffffffffffffffffffffffffffffffffff16021790555060408201518160020155606082015181600301556080820151816004015560a0820151816005015560c0820151816006015560e0820151816007019080519060200190610a7d929190611b6e565b5061010082015181600801559050506001547ffed67d07e3b8e27332916ce9bff31a6d9f05c1445c1844b36bfec0686b7cf6f98a8a8a8a6040518085815260200184815260200183815260200182815260200194505050505060405180910390a2600194505b50505050949350505050565b60608060008060606000806001541415610b3b576000604051908082528060200260200182016040528015610b335781602001602082028038833980820191505090505b509550610c58565b600154604051908082528060200260200182016040528015610b6c5781602001602082028038833980820191505090505b50945060009350600092505b600154831015610bd457600383815481101515610b9157fe5b9060005260206000209060090201600001548585815181101515610bb157fe5b906020019060200201818152505083806001019450508280600101935050610b78565b83604051908082528060200260200182016040528015610c035781602001602082028038833980820191505090505b509150600090505b83811015610c54578481815181101515610c2157fe5b906020019060200201518282815181101515610c3957fe5b90602001906020020181815250508080600101915050610c0b565b8195505b505050505090565b600080600090505b600480549050811015610cb757610c9e600482815481101515610c8757fe5b9060005260206000209060040201600001856119b9565b15610cac5760029150610dd4565b806001019050610c68565b60048054809190600101610ccb9190611bee565b5060016004805490501015610ce35760019150610dd4565b6080604051908101604052808581526020013373ffffffffffffffffffffffffffffffffffffffff16815260200184815260200160008152506004600160048054905003815481101515610d3357fe5b90600052602060002090600402016000820151816000019080519060200190610d5d929190611b6e565b5060208201518160010160006101000a81548173ffffffffffffffffffffffffffffffffffffffff021916908373ffffffffffffffffffffffffffffffffffffffff1602179055506040820151816002019080519060200190610dc1929190611b6e565b5060608201518160030155905050600091505b5092915050565b60008060008091505b60038054905082101561111a57600382815481101515610e0057fe5b9060005260206000209060090201600201548610158015610e415750600382815481101515610e2b57fe5b9060005260206000209060090201600301548611155b8015610e6d5750600382815481101515610e5757fe5b9060005260206000209060090201600401548510155b8015610e995750600382815481101515610e8357fe5b9060005260206000209060090201600501548411155b8015610ec557506000600383815481101515610eb157fe5b906000526020600020906009020160080154115b1561110757600090505b60058054905081101561103b57600581815481101515610eeb57fe5b90600052602060002090600702016003015486148015610f2a575084600582815481101515610f1657fe5b906000526020600020906007020160040154145b8015610f55575083600582815481101515610f4157fe5b906000526020600020906007020160050154145b80156110205750610fba600582815481101515610f6e57fe5b90600052602060002090600702016006016040805190810160405280600881526020017f41636365707465640000000000000000000000000000000000000000000000008152506119b9565b8061101f575061101e600582815481101515610fd257fe5b90600052602060002090600702016006016040805190810160405280600781526020017f50656e64696e67000000000000000000000000000000000000000000000000008152506119b9565b5b5b1561102e576004925061136e565b8080600101915050610ecf565b6005805480919060010161104f9190611c20565b50600160038381548110151561106157fe5b9060005260206000209060090201600801540360038381548110151561108357fe5b9060005260206000209060090201600801819055506040805190810160405280600981526020017f72657175657374656400000000000000000000000000000000000000000000008152506003838154811015156110dd57fe5b90600052602060002090600902016007019080519060200190611101929190611c52565b5061110c565b61110d565b5b8180600101925050610de4565b60026000815480929190600101919050555060e06040519081016040528060025481526020018881526020013373ffffffffffffffffffffffffffffffffffffffff1681526020018781526020018681526020018581526020016040805190810160405280600781526020017f50656e64696e670000000000000000000000000000000000000000000000000081525081525060056001600580549050038154811015156111c457fe5b90600052602060002090600702016000820151816000015560208201518160010190805190602001906111f8929190611b6e565b5060408201518160020160006101000a81548173ffffffffffffffffffffffffffffffffffffffff021916908373ffffffffffffffffffffffffffffffffffffffff160217905550606082015181600301556080820151816004015560a0820151816005015560c082015181600601908051906020019061127a929190611b6e565b509050506002547f939fdd1c090782e7ad318178d7adf28b08aeea040333e364e5608bfafad0013e883389898960405180806020018673ffffffffffffffffffffffffffffffffffffffff1673ffffffffffffffffffffffffffffffffffffffff168152602001858152602001848152602001838152602001828103825287818151815260200191508051906020019080838360005b8381101561132b578082015181840152602081019050611310565b50505050905090810190601f1680156113585780820380516001836020036101000a031916815260200191505b50965050505050505060405180910390a2600192505b5050949350505050565b60008060008091505b600580549050821015611601578560058381548110151561139e57fe5b9060005260206000209060070201600301541480156113dc5750846005838154811015156113c857fe5b906000526020600020906007020160040154145b156115e657600090505b6003805490508110156115e15760038181548110151561140257fe5b9060005260206000209060090201600201548610158015611443575060038181548110151561142d57fe5b9060005260206000209060090201600301548611155b801561146f575060038181548110151561145957fe5b9060005260206000209060090201600401548510155b801561149b575060038181548110151561148557fe5b9060005260206000209060090201600501548511155b156115d4578315611519576040805190810160405280600881526020017f41636365707465640000000000000000000000000000000000000000000000008152506005838154811015156114eb57fe5b9060005260206000209060070201600601908051906020019061150f929190611c52565b5060019250611602565b6040805190810160405280600681526020017f44656e696564000000000000000000000000000000000000000000000000000081525060058381548110151561155e57fe5b90600052602060002090600702016006019080519060200190611582929190611c52565b50600160038281548110151561159457fe5b906000526020600020906009020160080154016003828154811015156115b657fe5b90600052602060002090600902016008018190555060029250611602565b80806001019150506113e6565b6115eb565b6115f4565b60049250611602565b8180600101925050611381565b5b50509392505050565b6000806000806000806000606060008060038b81548110151561162a57fe5b90600052602060002090600902019050806000015499508060010160009054906101000a900473ffffffffffffffffffffffffffffffffffffffff1698508060020154975080600301549650806004015495508060050154945080600601549350806007018054600181600116156101000203166002900480601f0160208091040260200160405190810160405280929190818152602001828054600181600116156101000203166002900480156117235780601f106116f857610100808354040283529160200191611723565b820191906000526020600020905b81548152906001019060200180831161170657829003601f168201915b5050505050925080600801549150509193959799909294969850565b60606000806000806060600060058881548110151561175a57fe5b90600052602060002090600702019050806001018054600181600116156101000203166002900480601f0160208091040260200160405190810160405280929190818152602001828054600181600116156101000203166002900480156118025780601f106117d757610100808354040283529160200191611802565b820191906000526020600020905b8154815290600101906020018083116117e557829003601f168201915b505050505096508060020160009054906101000a900473ffffffffffffffffffffffffffffffffffffffff169550806003015494508060050154925080600401549350806006018054600181600116156101000203166002900480601f0160208091040260200160405190810160405280929190818152602001828054600181600116156101000203166002900480156118dd5780601f106118b2576101008083540402835291602001916118dd565b820191906000526020600020905b8154815290600101906020018083116118c057829003601f168201915b505050505091505091939550919395565b600080600090505b6004805490508110156119ad5761192c60048281548110151561191557fe5b9060005260206000209060040201600001856119b9565b801561195d575061195c60048281548110151561194557fe5b9060005260206000209060040201600201846119b9565b5b1561196b57600191506119b2565b61199460048281548110151561197d57fe5b9060005260206000209060040201600001856119b9565b156119a257600091506119b2565b8060010190506118f6565b600091505b5092915050565b600080606060008592508491508151838054600181600116156101000203166002900490501415156119ee5760009350611b33565b600090505b82805460018160011615610100020316600290049050811015611b2e578181815181101515611a1e57fe5b9060200101517f010000000000000000000000000000000000000000000000000000000000000090047f0100000000000000000000000000000000000000000000000000000000000000027effffffffffffffffffffffffffffffffffffffffffffffffffffffffffffff191683828154600181600116156101000203166002900481101515611aaa57fe5b815460011615611ac95790600052602060002090602091828204019190065b9054901a7f0100000000000000000000000000000000000000000000000000000000000000027effffffffffffffffffffffffffffffffffffffffffffffffffffffffffffff1916141515611b215760009350611b33565b80806001019150506119f3565b600193505b50505092915050565b815481835581811115611b6957600902816009028360005260206000209182019101611b689190611cd2565b5b505050565b828054600181600116156101000203166002900490600052602060002090601f016020900481019282601f10611baf57805160ff1916838001178555611bdd565b82800160010185558215611bdd579182015b82811115611bdc578251825591602001919060010190611bc1565b5b509050611bea9190611d60565b5090565b815481835581811115611c1b57600402816004028360005260206000209182019101611c1a9190611d85565b5b505050565b815481835581811115611c4d57600702816007028360005260206000209182019101611c4c9190611df3565b5b505050565b828054600181600116156101000203166002900490600052602060002090601f016020900481019282601f10611c9357805160ff1916838001178555611cc1565b82800160010185558215611cc1579182015b82811115611cc0578251825591602001919060010190611ca5565b5b509050611cce9190611d60565b5090565b611d5d91905b80821115611d59576000808201600090556001820160006101000a81549073ffffffffffffffffffffffffffffffffffffffff021916905560028201600090556003820160009055600482016000905560058201600090556006820160009055600782016000611d489190611e79565b600882016000905550600901611cd8565b5090565b90565b611d8291905b80821115611d7e576000816000905550600101611d66565b5090565b90565b611df091905b80821115611dec5760008082016000611da49190611e79565b6001820160006101000a81549073ffffffffffffffffffffffffffffffffffffffff0219169055600282016000611ddb9190611e79565b600382016000905550600401611d8b565b5090565b90565b611e7691905b80821115611e7257600080820160009055600182016000611e1a9190611e79565b6002820160006101000a81549073ffffffffffffffffffffffffffffffffffffffff0219169055600382016000905560048201600090556005820160009055600682016000611e699190611e79565b50600701611df9565b5090565b90565b50805460018160011615610100020316600290046000825580601f10611e9f5750611ebe565b601f016020900490600052602060002090810190611ebd9190611d60565b5b505600a165627a7a723058206735304bb53e737809d22d5e98957d4ea7805e41d8b97bb06be17575f03530ee0029",
  "source": "    pragma solidity ^0.4.21;\n    \n    import \"./Owned.sol\";\n\n    contract BookingContract is Owned{\n    \n        //  Struct Calendar\n        //  owner - username of the customer\n        //  consumer - Consumer address\n        //  day - Calendar Day\n        //  fromTime - Beginning time of the day\n        //  toTime -  Ending Time of the Day\n        //  maxSlotTime - Time duration that calendar can be blocked\n    \n        // @dev main Calendar strucutre\n        struct Calendar {\n            // slotcounter\n            uint slotId;\n            // owner\n            address owner;\n            // identify fromDay\n            uint256 fromDay;\n            // identify toDay\n            uint256 toDay;\n            // From time\n            uint256 fromTime;\n            //To time\n            uint256 toTime;\n            // max slot time (unit of time, i.e. thirty minutes = 1800*0.5 seconds)\n            uint256 maxSlotTime;\n            //status \n            string bookstatus;\n            //Maximum slots a day can have 16\n            uint maxslotcounter;\n        }\n    \n        //  Struct Consumers\n        //  name - name of the consumer\n        //  address - address of the consumer\n        //  meetCount - number of meeting slot booked by this consumer\n        //  password - password to store \n    \n        struct Consumer {\n            string name;\n            address ethAddress;\n            string password;\n            uint meetCount;\n        }\n    \n        //  Struct Request\n        //  uname - name of the consumer\n        //  ethAddress - address of the consumer\n        //  isAllowed - \n        //  day - day of the month\n        //  year - Year of the schedule\n        // fromTime - meeting Beginning time\n        // toTime - Meeting End time\n        // approveStatus - acceptance Status\n    \n        struct Request {\n            uint _id;\n            string uname;\n            address ethAddress;\n            uint day;\n            uint fromTime;\n            uint toTime;\n            string approveStatus;\n        }\n        \n        //Events to capture Adding Open slot\n        event addSlotEvent(\n            uint indexed _id,\n       \t    uint _fromDate,\n        \tuint _toDate,\n        \tuint _fromTime,\n        \tuint _toTime\n        );\n        \n        //Events to capture booking Request\n        event addBookRequestEvent(\n            uint indexed _id,\n            string uname,\n            address ethAddress,\n       \t    uint _fromDate,\n        \tuint _fromTime,\n        \tuint _toTime\n        );\n                \n        \n        //Counter to have slots\n        uint slotCounter;\n        \n        //Counter to have getBookingRequest\n        uint bookCounter;\n    \n        //list of all calendar slot\n        Calendar[] allCalendars;\n    \n        //list of all consumers\n        Consumer[] allConsumers;\n    \n        // list of all requests\n        Request[] allRequests;\n        \n        \n        //  function to add a consumer profile to the database\n        //  returns 0 if successful\n        //  returns 2 if customer already in network\n    \n        function registerConsumer(string Uname, string password) public returns(uint) {\n            //  throw error if username already in use\n            for(uint i = 0;i < allConsumers.length; ++ i) {\n                if(stringsEqual(allConsumers[i].name, Uname))\n                    return 2;\n            }\n            allConsumers.length ++;\n            //  throw error if there is overflow in uint\n            if(allConsumers.length < 1)\n                return 1;\n            allConsumers[allConsumers.length-1] = Consumer(Uname, msg.sender,password,0);\n            return 0;\n        }\n        \n        //  function to Check if consumer is registered\n        //  returns 0 if successful\n        \n        function loginCustomer(string Uname, string password) public returns(bool) {\n            for(uint i = 0; i < allConsumers.length; ++ i) {\n                if(stringsEqual(allConsumers[i].name, Uname) && stringsEqual(allConsumers[i].password, password)) {\n                    return true;\n                }\n                if(stringsEqual(allConsumers[i].name, Uname)) {\n                    return false;\n                }\n            }\n            return false;\n        }\n    \n        //  function to open slots in calendar\n        //  returns 0 if successful\n    \n        function openSlots(uint _fromDay,uint _toDay, uint _fromTime, uint _toTime) public payable returns(bool) {\n            uint actualslot = ((_toDay - _fromDay) + 1) * 16;\n\n            string memory status = \"free\";\n            uint slotTime = 1800*0.5;\n            for(uint i = 0;i < allCalendars.length; ++ i) {\n                if((allCalendars[i].fromDay==_fromDay) &&  (allCalendars[i].toDay==_toDay)  && (allCalendars[i].fromTime==_fromTime) && (allCalendars[i].toTime==_toTime))\n                    return false ;\n            }\n            allCalendars.length ++;\n            //  throw error if there is overflow in uint\n            if(allCalendars.length < 1)\n                return false;\n            slotCounter++;\n            allCalendars[allCalendars.length-1] = Calendar(slotCounter, msg.sender,_fromDay,_toDay,_fromTime,_toTime,slotTime,status,actualslot);\n            \n            //call event to capture\n            addSlotEvent(slotCounter,_fromDay,_toDay,_fromTime,_toTime);\n            \n            return true;\n        }\n        \n    \t//  function to open slots in calendar\n        //  returns 0 if successful\n    \t\n    \tfunction getSlotInfo(uint256 _slotId) external view\n            returns (uint slotId,address owner,uint fromday, uint256 today,uint256 fromTime,uint256 toTime, uint256 maxSlotTime,string bookstatus,uint maxslotcounter)\n            {\n            Calendar storage cal = allCalendars[_slotId];\n            slotId = cal.slotId;\n            owner = cal.owner;\n            fromday = cal.fromDay;\n            today = cal.toDay;\n            fromTime = cal.fromTime;\n            toTime = cal.toTime;\n            maxSlotTime = cal.maxSlotTime;\n            bookstatus = cal.bookstatus;\n            maxslotcounter = cal.maxslotcounter;\n    \n        }\n          // fetch and returns all reviews IDs available for visitor\n      function getSlotstoView() public constant returns (uint[]) {\n        // we check whether there is at least one review\n        if(slotCounter == 0) {\n          return new uint[](0);\n        }\n        // prepare intermediary array\n        uint[] memory slotIds = new uint[](slotCounter);\n        uint numberofSlotstoView = 0;\n        // iterate over reviews\n        for (uint i = 0; i < slotCounter; i++) {\n            slotIds[numberofSlotstoView] = allCalendars[i].slotId;\n            numberofSlotstoView++;\n        }\n        // copy the reviewsID array into the smaller forReview array\n        uint[] memory forView = new uint[](numberofSlotstoView);\n        for (uint j = 0; j < numberofSlotstoView; j++) {\n          forView[j] = slotIds[j];\n        }\n        return (forView);\n      }\n    \n        // Function to Bookslot\n        // return code 4 - record already exists\n        // return code 2 - requested date not in Calendar\n        // return code 1 - booking reuqest successfully\n        function bookSlot(string uname,uint256 _day, uint256 _fromTime, uint256 _toTime) public payable returns(uint) {\n           for(uint i = 0;i < allCalendars.length; i++ ) {\n                if((_day >= allCalendars[i].fromDay ) && (_day<= allCalendars[i].toDay) && (_fromTime >=allCalendars[i].fromTime) && (_toTime<=allCalendars[i].toTime) && (allCalendars[i].maxslotcounter > 0) ){\n                    for(uint j = 0;j<allRequests.length; j++){\n                        if((_day == allRequests[j].day) && (allRequests[j].fromTime==_fromTime) && (allRequests[j].toTime==_toTime) && ((stringsEqual(allRequests[j].approveStatus, 'Accepted')) || (stringsEqual(allRequests[j].approveStatus, 'Pending')) )){\n                            return 4;\n                        }\n                    }\n                    allRequests.length++;\n                    allCalendars[i].maxslotcounter = allCalendars[i].maxslotcounter - 1;\n                    allCalendars[i].bookstatus='requested';\n                }else{\n                    continue;\n                }\n    \n           }\n            bookCounter++;\n            allRequests[allRequests.length-1] = Request(bookCounter,uname,msg.sender,_day,_fromTime,_toTime,\"Pending\");\n            \n            //Call Event to capture the same\n            addBookRequestEvent(bookCounter,uname,msg.sender,_day,_fromTime,_toTime);    \n            \n            return 1;\n    \t}\n    \t\n       // Function to getBookingRequest\n    \tfunction getBookingRequest(uint256 _slotId) external view\n            returns (string name,address consumerAddress, uint256 day,uint256 fromTime,uint256 toTime, string status)\n            {\n            Request storage req = allRequests[_slotId];\n            name = req.uname;\n            consumerAddress = req.ethAddress;\n            day = req.day;\n            toTime = req.toTime;\n            fromTime = req.fromTime;\n            status = req.approveStatus;\n        }\n        \n                  // fetch and returns all reviews IDs available for visitor\n      function getBookingRequestoView() public constant returns (uint[]) {\n        // we check whether there is at least one review\n        if(bookCounter == 0) {\n          return new uint[](0);\n        }\n        // prepare intermediary array\n        uint[] memory bookIds = new uint[](bookCounter);\n        uint numberofRequesttoView = 0;\n        // iterate over reviews\n        for (uint i = 0; i < bookCounter; i++) {\n            bookIds[numberofRequesttoView] = allRequests[i]._id;\n            numberofRequesttoView++;\n        }\n        // copy the reviewsID array into the smaller forReview array\n        uint[] memory forView = new uint[](numberofRequesttoView);\n        for (uint j = 0; j < numberofRequesttoView; j++) {\n          forView[j] = bookIds[j];\n        }\n        return (forView);\n      }\n    \n       // Function to compare strings\n        function stringsEqual(string storage _a, string memory _b) internal returns (bool) {\n    \t\tbytes storage a = bytes(_a);\n    \t\tbytes memory b = bytes(_b);\n    \t\tif (a.length != b.length)\n    \t\t\treturn false;\n    \t\t// @todo unroll this loop\n    \t\tfor (uint i = 0; i < a.length; i ++)\n            {\n    \t\t\tif (a[i] != b[i])\n    \t\t\t\treturn false;\n            }\n    \t\treturn true;\n    \t}\n    \t\n        // Function to approve or deny\n        function approveDeny(uint256 _day,uint256 _fromTime, bool apprdeny) public payable returns(uint){\n            for(uint i = 0; i <allRequests.length; i++) {\n                if((allRequests[i].day == _day)  && (allRequests[i].fromTime == _fromTime)) {\n                    \n                    for(uint j=0; j< allCalendars.length; j++){\n                        if((_day >= allCalendars[j].fromDay ) && (_day<= allCalendars[j].toDay)  && (_fromTime >= allCalendars[j].fromTime) && (_fromTime <= allCalendars[j].toTime) ){\n                            if(apprdeny){\n                                 allRequests[i].approveStatus = 'Accepted';\n                                 return 1;\n                            }else{\n                                 allRequests[i].approveStatus = 'Denied';\n                                 allCalendars[j].maxslotcounter =  allCalendars[j].maxslotcounter + 1;\n                                 return 2;\n                            }\n                        }else{\n                            continue;\n                        }\n                    }\n                  }else\n                  {\n                      continue;\n                  }\n                return 4;\n            }\n        }\n    \t\n    \t\n    \t\n    }\n",
  "sourcePath": "C:\\Users\\User\\Desktop\\chain-hair-bookings-main\\contracts\\BookingContract.sol",
  "compiler": {
    "name": "solc",
    "version": "0.4.26+commit.4563c3fc.Emscripten.clang"
  },
  "schemaVersion": "3.4.16",
  "updatedAt": "2026-04-29T20:13:04.339Z",
  "networkType": "ethereum",
  "devdoc": {
    "methods": {}
  },
  "userdoc": {
    "methods": {}
  }
}